{
  "address": "0x998abeb3E57409262aE5b751f60747921B33613E",
  "abi": [
    {
      "inputs": [],
      "name": "complete",
      "outputs": [],
      "stateMutability": "payable",
      "type": "function"
    },
    {
      "inputs": [],
      "name": "completed",
      "outputs": [
        {
          "internalType": "bool",
          "name": "",
          "type": "bool"
        }
      ],
      "stateMutability": "view",
      "type": "function"
    }
  ],
  "transactionHash": "0x2cc49c92e87a6021275df8b51c28f51561144737a45c743f2ac98e622788ba15",
  "args": [],
  "solcInputHash": "e72d9da527a276bfe997f69298df704e",
  "bytecode": "0x6080604052348015600f57600080fd5b5060a08061001e6000396000f3fe60806040526004361060265760003560e01c8063522e117714602b5780639d9a7fe914603e575b600080fd5b603c6000805460ff19166001179055565b005b348015604957600080fd5b5060005460569060ff1681565b604051901515815260200160405180910390f3fea264697066735822122004c5b4f7c90a5ceec144cd978efca103bf9000910c0266d1013a20522b1ada5864736f6c63430008040033",
  "devdoc": {
    "kind": "dev",
    "methods": {},
    "version": 1
  },
  "userdoc": {
    "kind": "user",
    "methods": {},
    "version": 1
  },
  "storageLayout": {
    "storage": [
      {
        "astId": 3,
        "contract": "contracts/ExampleExternalContract.sol:ExampleExternalContract",
        "label": "completed",
        "offset": 0,
        "slot": "0",
        "type": "t_bool"
      }
    ],
    "types": {
      "t_bool": {
        "encoding": "inplace",
        "label": "bool",
        "numberOfBytes": "1"
      }
    }
  }
}