{
  "_format": "hh-sol-artifact-1",
  "contractName": "Staker",
  "sourceName": "contracts/Staker.sol",
  "abi": [
    {
      "inputs": [
        {
          "internalType": "address",
          "name": "exampleExternalContractAddress",
          "type": "address"
        }
      ],
      "stateMutability": "nonpayable",
      "type": "constructor"
    },
    {
      "anonymous": false,
      "inputs": [
        {
          "indexed": true,
          "internalType": "address",
          "name": "sender",
          "type": "address"
        },
        {
          "indexed": false,
          "internalType": "uint256",
          "name": "stakeAmount",
          "type": "uint256"
        }
      ],
      "name": "Stake",
      "type": "event"
    },
    {
      "inputs": [
        {
          "internalType": "address",
          "name": "",
          "type": "address"
        }
      ],
      "name": "balances",
      "outputs": [
        {
          "internalType": "uint256",
          "name": "",
          "type": "uint256"
        }
      ],
      "stateMutability": "view",
      "type": "function"
    },
    {
      "inputs": [],
      "name": "deadline",
      "outputs": [
        {
          "internalType": "uint256",
          "name": "",
          "type": "uint256"
        }
      ],
      "stateMutability": "view",
      "type": "function"
    },
    {
      "inputs": [],
      "name": "exampleExternalContract",
      "outputs": [
        {
          "internalType": "contract ExampleExternalContract",
          "name": "",
          "type": "address"
        }
      ],
      "stateMutability": "view",
      "type": "function"
    },
    {
      "inputs": [],
      "name": "execute",
      "outputs": [],
      "stateMutability": "nonpayable",
      "type": "function"
    },
    {
      "inputs": [],
      "name": "stake",
      "outputs": [],
      "stateMutability": "payable",
      "type": "function"
    },
    {
      "inputs": [],
      "name": "threshold",
      "outputs": [
        {
          "internalType": "uint256",
          "name": "",
          "type": "uint256"
        }
      ],
      "stateMutability": "view",
      "type": "function"
    },
    {
      "inputs": [],
      "name": "timeLeft",
      "outputs": [
        {
          "internalType": "uint256",
          "name": "timeleft",
          "type": "uint256"
        }
      ],
      "stateMutability": "view",
      "type": "function"
    },
    {
      "inputs": [],
      "name": "withdraw",
      "outputs": [],
      "stateMutability": "nonpayable",
      "type": "function"
    },
    {
      "stateMutability": "payable",
      "type": "receive"
    }
  ],
  "bytecode": "0x608060405261000f42601e610090565b60025534801561001e57600080fd5b506040516108e33803806108e383398101604081905261003d91610062565b600080546001600160a01b0319166001600160a01b03929092169190911790556100b4565b600060208284031215610073578081fd5b81516001600160a01b0381168114610089578182fd5b9392505050565b600082198211156100af57634e487b7160e01b81526011600452602481fd5b500190565b610820806100c36000396000f3fe60806040526004361061007f5760003560e01c80633ccfd60b1161004e5780633ccfd60b1461010657806342cde4e81461011b57806361461954146101375780639f75f2271461014c57600080fd5b80631300a6d11461009357806327e235e3146100bb57806329dcb0cf146100e85780633a4b66f1146100fe57600080fd5b3661008e5761008c610184565b005b600080fd5b34801561009f57600080fd5b506100a86102e8565b6040519081526020015b60405180910390f35b3480156100c757600080fd5b506100a86100d63660046106b2565b60016020526000908152604090205481565b3480156100f457600080fd5b506100a860025481565b61008c610184565b34801561011257600080fd5b5061008c61030c565b34801561012757600080fd5b506100a8670de0b6b3a764000081565b34801561014357600080fd5b5061008c610536565b34801561015857600080fd5b5060005461016c906001600160a01b031681565b6040516001600160a01b0390911681526020016100b2565b60008061018f6102e8565b905081156101c35780156101be5760405162461bcd60e51b81526004016101b59061076e565b60405180910390fd5b6101e3565b600081116101e35760405162461bcd60e51b81526004016101b590610737565b60008060009054906101000a90046001600160a01b03166001600160a01b0316639d9a7fe96040518163ffffffff1660e01b815260040160206040518083038186803b15801561023257600080fd5b505afa158015610246573d6000803e3d6000fd5b505050506040513d601f19601f8201168201806040525081019061026a91906106e0565b9050801561028a5760405162461bcd60e51b81526004016101b590610700565b33600090815260016020526040812080543492906102a99084906107a5565b909155505060405134815233907febedb8b3c678666e7f36970bc8f57abf6d8fa2e828c0da91ea5b75bf68ed101a9060200160405180910390a2505050565b600060025442106102f95750600090565b4260025461030791906107bd565b905090565b600160006103186102e8565b9050811561034357801561033e5760405162461bcd60e51b81526004016101b59061076e565b610363565b600081116103635760405162461bcd60e51b81526004016101b590610737565b60008060009054906101000a90046001600160a01b03166001600160a01b0316639d9a7fe96040518163ffffffff1660e01b815260040160206040518083038186803b1580156103b257600080fd5b505afa1580156103c6573d6000803e3d6000fd5b505050506040513d601f19601f820116820180604052508101906103ea91906106e0565b9050801561040a5760405162461bcd60e51b81526004016101b590610700565b33600090815260016020526040902054806104725760405162461bcd60e51b815260206004820152602260248201527f596f75206469646e2774207374616b6564206f6e207468697320636f6e74726160448201526118dd60f21b60648201526084016101b5565b604051600090339083908381818185875af1925050503d80600081146104b4576040519150601f19603f3d011682016040523d82523d6000602084013e6104b9565b606091505b505090508061051f5760405162461bcd60e51b815260206004820152602c60248201527f4661696c656420746f2073656e6420757365722062616c616e6365206261636b60448201526b103a37903a3432903ab9b2b960a11b60648201526084016101b5565b505033600090815260016020526040812055505050565b600160006105426102e8565b9050811561056d5780156105685760405162461bcd60e51b81526004016101b59061076e565b61058d565b6000811161058d5760405162461bcd60e51b81526004016101b590610737565b60008060009054906101000a90046001600160a01b03166001600160a01b0316639d9a7fe96040518163ffffffff1660e01b815260040160206040518083038186803b1580156105dc57600080fd5b505afa1580156105f0573d6000803e3d6000fd5b505050506040513d601f19601f8201168201806040525081019061061491906106e0565b905080156106345760405162461bcd60e51b81526004016101b590610700565b47670de0b6b3a764000081106106ac5760008054906101000a90046001600160a01b03166001600160a01b031663522e1177476040518263ffffffff1660e01b81526004016000604051808303818588803b15801561069257600080fd5b505af11580156106a6573d6000803e3d6000fd5b50505050505b50505050565b6000602082840312156106c3578081fd5b81356001600160a01b03811681146106d9578182fd5b9392505050565b6000602082840312156106f1578081fd5b815180151581146106d9578182fd5b60208082526019908201527f5374616b696e6720616c726561647920636f6d706c6574656400000000000000604082015260600190565b6020808252601b908201527f446561646c696e6520697320616c726561647920726561636865640000000000604082015260600190565b6020808252601b908201527f446561646c696e65206973206e6f742072656163686564207965740000000000604082015260600190565b600082198211156107b8576107b86107d4565b500190565b6000828210156107cf576107cf6107d4565b500390565b634e487b7160e01b600052601160045260246000fdfea2646970667358221220f42f0d0bca5b6ed9d5f5618b819b3efb64bb012a055264e268752a5d1bb7ac3c64736f6c63430008040033",
  "linkReferences": {},
  "deployedLinkReferences": {}
}