{
  "_format": "hh-sol-artifact-1",
  "contractName": "Staker",
  "sourceName": "contracts/Staker.sol",
  "abi": [
    {
      "inputs": [
        {
          "internalType": "address",
          "name": "exampleExternalContractAddress",
          "type": "address"
        }
      ],
      "stateMutability": "nonpayable",
      "type": "constructor"
    },
    {
      "anonymous": false,
      "inputs": [
        {
          "indexed": true,
          "internalType": "address",
          "name": "sender",
          "type": "address"
        },
        {
          "indexed": false,
          "internalType": "uint256",
          "name": "stakeAmount",
          "type": "uint256"
        }
      ],
      "name": "Stake",
      "type": "event"
    },
    {
      "inputs": [
        {
          "internalType": "address",
          "name": "",
          "type": "address"
        }
      ],
      "name": "balances",
      "outputs": [
        {
          "internalType": "uint256",
          "name": "",
          "type": "uint256"
        }
      ],
      "stateMutability": "view",
      "type": "function"
    },
    {
      "inputs": [],
      "name": "deadline",
      "outputs": [
        {
          "internalType": "uint256",
          "name": "",
          "type": "uint256"
        }
      ],
      "stateMutability": "view",
      "type": "function"
    },
    {
      "inputs": [],
      "name": "exampleExternalContract",
      "outputs": [
        {
          "internalType": "contract ExampleExternalContract",
          "name": "",
          "type": "address"
        }
      ],
      "stateMutability": "view",
      "type": "function"
    },
    {
      "inputs": [],
      "name": "execute",
      "outputs": [],
      "stateMutability": "nonpayable",
      "type": "function"
    },
    {
      "inputs": [
        {
          "internalType": "uint256",
          "name": "amount",
          "type": "uint256"
        }
      ],
      "name": "receive",
      "outputs": [],
      "stateMutability": "payable",
      "type": "function"
    },
    {
      "inputs": [],
      "name": "stake",
      "outputs": [],
      "stateMutability": "payable",
      "type": "function"
    },
    {
      "inputs": [],
      "name": "threshold",
      "outputs": [
        {
          "internalType": "uint256",
          "name": "",
          "type": "uint256"
        }
      ],
      "stateMutability": "view",
      "type": "function"
    },
    {
      "inputs": [],
      "name": "timeLeft",
      "outputs": [
        {
          "internalType": "uint256",
          "name": "timeleft",
          "type": "uint256"
        }
      ],
      "stateMutability": "view",
      "type": "function"
    },
    {
      "inputs": [],
      "name": "withdraw",
      "outputs": [],
      "stateMutability": "nonpayable",
      "type": "function"
    }
  ],
  "bytecode": "0x608060405261000f42601e610090565b60025534801561001e57600080fd5b50604051610ae6380380610ae683398101604081905261003d91610062565b600080546001600160a01b0319166001600160a01b03929092169190911790556100b4565b600060208284031215610073578081fd5b81516001600160a01b0381168114610089578182fd5b9392505050565b600082198211156100af57634e487b7160e01b81526011600452602481fd5b500190565b610a23806100c36000396000f3fe6080604052600436106100865760003560e01c80633ccfd60b116100595780633ccfd60b1461010057806342cde4e81461011557806361461954146101315780639f75f22714610146578063cba2534f1461017e57600080fd5b80631300a6d11461008b57806327e235e3146100b357806329dcb0cf146100e05780633a4b66f1146100f6575b600080fd5b34801561009757600080fd5b506100a0610191565b6040519081526020015b60405180910390f35b3480156100bf57600080fd5b506100a06100ce36600461087e565b60016020526000908152604090205481565b3480156100ec57600080fd5b506100a060025481565b6100fe6101b5565b005b34801561010c57600080fd5b506100fe610319565b34801561012157600080fd5b506100a0670de0b6b3a764000081565b34801561013d57600080fd5b506100fe610543565b34801561015257600080fd5b50600054610166906001600160a01b031681565b6040516001600160a01b0390911681526020016100aa565b6100fe61018c3660046108cc565b6106ff565b600060025442106101a25750600090565b426002546101b091906109c0565b905090565b6000806101c0610191565b905081156101f45780156101ef5760405162461bcd60e51b81526004016101e690610952565b60405180910390fd5b610214565b600081116102145760405162461bcd60e51b81526004016101e69061091b565b60008060009054906101000a90046001600160a01b03166001600160a01b0316639d9a7fe96040518163ffffffff1660e01b815260040160206040518083038186803b15801561026357600080fd5b505afa158015610277573d6000803e3d6000fd5b505050506040513d601f19601f8201168201806040525081019061029b91906108ac565b905080156102bb5760405162461bcd60e51b81526004016101e6906108e4565b33600090815260016020526040812080543492906102da908490610989565b909155505060405134815233907febedb8b3c678666e7f36970bc8f57abf6d8fa2e828c0da91ea5b75bf68ed101a9060200160405180910390a2505050565b60016000610325610191565b9050811561035057801561034b5760405162461bcd60e51b81526004016101e690610952565b610370565b600081116103705760405162461bcd60e51b81526004016101e69061091b565b60008060009054906101000a90046001600160a01b03166001600160a01b0316639d9a7fe96040518163ffffffff1660e01b815260040160206040518083038186803b1580156103bf57600080fd5b505afa1580156103d3573d6000803e3d6000fd5b505050506040513d601f19601f820116820180604052508101906103f791906108ac565b905080156104175760405162461bcd60e51b81526004016101e6906108e4565b336000908152600160205260409020548061047f5760405162461bcd60e51b815260206004820152602260248201527f596f75206469646e2774207374616b6564206f6e207468697320636f6e74726160448201526118dd60f21b60648201526084016101e6565b604051600090339083908381818185875af1925050503d80600081146104c1576040519150601f19603f3d011682016040523d82523d6000602084013e6104c6565b606091505b505090508061052c5760405162461bcd60e51b815260206004820152602c60248201527f4661696c656420746f2073656e6420757365722062616c616e6365206261636b60448201526b103a37903a3432903ab9b2b960a11b60648201526084016101e6565b505033600090815260016020526040812055505050565b6001600061054f610191565b9050811561057a5780156105755760405162461bcd60e51b81526004016101e690610952565b61059a565b6000811161059a5760405162461bcd60e51b81526004016101e69061091b565b60008060009054906101000a90046001600160a01b03166001600160a01b0316639d9a7fe96040518163ffffffff1660e01b815260040160206040518083038186803b1580156105e957600080fd5b505afa1580156105fd573d6000803e3d6000fd5b505050506040513d601f19601f8201168201806040525081019061062191906108ac565b905080156106415760405162461bcd60e51b81526004016101e6906108e4565b47670de0b6b3a76400008110156106925760405162461bcd60e51b8152602060048201526015602482015274151a1c995cda1bdb19081b9bdd081c995858da1959605a1b60448201526064016101e6565b60008054906101000a90046001600160a01b03166001600160a01b031663522e1177476040518263ffffffff1660e01b81526004016000604051808303818588803b1580156106e057600080fd5b505af11580156106f4573d6000803e3d6000fd5b505050505050505050565b60008061070a610191565b905081156107355780156107305760405162461bcd60e51b81526004016101e690610952565b610755565b600081116107555760405162461bcd60e51b81526004016101e69061091b565b60008060009054906101000a90046001600160a01b03166001600160a01b0316639d9a7fe96040518163ffffffff1660e01b815260040160206040518083038186803b1580156107a457600080fd5b505afa1580156107b8573d6000803e3d6000fd5b505050506040513d601f19601f820116820180604052508101906107dc91906108ac565b905080156107fc5760405162461bcd60e51b81526004016101e6906108e4565b61080e84670de0b6b3a76400006109a1565b336000908152600160205260408120805490919061082d908490610989565b909155503390507febedb8b3c678666e7f36970bc8f57abf6d8fa2e828c0da91ea5b75bf68ed101a61086786670de0b6b3a76400006109a1565b60405190815260200160405180910390a250505050565b60006020828403121561088f578081fd5b81356001600160a01b03811681146108a5578182fd5b9392505050565b6000602082840312156108bd578081fd5b815180151581146108a5578182fd5b6000602082840312156108dd578081fd5b5035919050565b60208082526019908201527f5374616b696e6720616c726561647920636f6d706c6574656400000000000000604082015260600190565b6020808252601b908201527f446561646c696e6520697320616c726561647920726561636865640000000000604082015260600190565b6020808252601b908201527f446561646c696e65206973206e6f742072656163686564207965740000000000604082015260600190565b6000821982111561099c5761099c6109d7565b500190565b60008160001904831182151516156109bb576109bb6109d7565b500290565b6000828210156109d2576109d26109d7565b500390565b634e487b7160e01b600052601160045260246000fdfea2646970667358221220434ae1adda5b10a4d4be8e7e7afcf4af0a5c4bb23b9ec901240c15f36192804d64736f6c63430008040033",
  "linkReferences": {},
  "deployedLinkReferences": {}
}